{
  "_format": "hh-sol-artifact-1",
  "contractName": "TestToken",
  "sourceName": "contracts/TestToken.sol",
  "abi": [
    {
      "inputs": [],
      "stateMutability": "nonpayable",
      "type": "constructor"
    },
    {
      "anonymous": false,
      "inputs": [
        {
          "indexed": true,
          "internalType": "address",
          "name": "owner",
          "type": "address"
        },
        {
          "indexed": true,
          "internalType": "address",
          "name": "spender",
          "type": "address"
        },
        {
          "indexed": false,
          "internalType": "uint256",
          "name": "value",
          "type": "uint256"
        }
      ],
      "name": "Approval",
      "type": "event"
    },
    {
      "anonymous": false,
      "inputs": [
        {
          "indexed": true,
          "internalType": "bytes32",
          "name": "role",
          "type": "bytes32"
        },
        {
          "indexed": true,
          "internalType": "bytes32",
          "name": "previousAdminRole",
          "type": "bytes32"
        },
        {
          "indexed": true,
          "internalType": "bytes32",
          "name": "newAdminRole",
          "type": "bytes32"
        }
      ],
      "name": "RoleAdminChanged",
      "type": "event"
    },
    {
      "anonymous": false,
      "inputs": [
        {
          "indexed": true,
          "internalType": "bytes32",
          "name": "role",
          "type": "bytes32"
        },
        {
          "indexed": true,
          "internalType": "address",
          "name": "account",
          "type": "address"
        },
        {
          "indexed": true,
          "internalType": "address",
          "name": "sender",
          "type": "address"
        }
      ],
      "name": "RoleGranted",
      "type": "event"
    },
    {
      "anonymous": false,
      "inputs": [
        {
          "indexed": true,
          "internalType": "bytes32",
          "name": "role",
          "type": "bytes32"
        },
        {
          "indexed": true,
          "internalType": "address",
          "name": "account",
          "type": "address"
        },
        {
          "indexed": true,
          "internalType": "address",
          "name": "sender",
          "type": "address"
        }
      ],
      "name": "RoleRevoked",
      "type": "event"
    },
    {
      "anonymous": false,
      "inputs": [
        {
          "indexed": false,
          "internalType": "uint256",
          "name": "id",
          "type": "uint256"
        }
      ],
      "name": "Snapshot",
      "type": "event"
    },
    {
      "anonymous": false,
      "inputs": [
        {
          "indexed": true,
          "internalType": "address",
          "name": "from",
          "type": "address"
        },
        {
          "indexed": true,
          "internalType": "address",
          "name": "to",
          "type": "address"
        },
        {
          "indexed": false,
          "internalType": "uint256",
          "name": "value",
          "type": "uint256"
        }
      ],
      "name": "Transfer",
      "type": "event"
    },
    {
      "inputs": [],
      "name": "DEFAULT_ADMIN_ROLE",
      "outputs": [
        {
          "internalType": "bytes32",
          "name": "",
          "type": "bytes32"
        }
      ],
      "stateMutability": "view",
      "type": "function"
    },
    {
      "inputs": [],
      "name": "DOMAIN_SEPARATOR",
      "outputs": [
        {
          "internalType": "bytes32",
          "name": "",
          "type": "bytes32"
        }
      ],
      "stateMutability": "view",
      "type": "function"
    },
    {
      "inputs": [],
      "name": "SNAPSHOT_ROLE",
      "outputs": [
        {
          "internalType": "bytes32",
          "name": "",
          "type": "bytes32"
        }
      ],
      "stateMutability": "view",
      "type": "function"
    },
    {
      "inputs": [
        {
          "internalType": "address",
          "name": "owner",
          "type": "address"
        },
        {
          "internalType": "address",
          "name": "spender",
          "type": "address"
        }
      ],
      "name": "allowance",
      "outputs": [
        {
          "internalType": "uint256",
          "name": "",
          "type": "uint256"
        }
      ],
      "stateMutability": "view",
      "type": "function"
    },
    {
      "inputs": [
        {
          "internalType": "address",
          "name": "spender",
          "type": "address"
        },
        {
          "internalType": "uint256",
          "name": "amount",
          "type": "uint256"
        }
      ],
      "name": "approve",
      "outputs": [
        {
          "internalType": "bool",
          "name": "",
          "type": "bool"
        }
      ],
      "stateMutability": "nonpayable",
      "type": "function"
    },
    {
      "inputs": [
        {
          "internalType": "address",
          "name": "account",
          "type": "address"
        }
      ],
      "name": "balanceOf",
      "outputs": [
        {
          "internalType": "uint256",
          "name": "",
          "type": "uint256"
        }
      ],
      "stateMutability": "view",
      "type": "function"
    },
    {
      "inputs": [
        {
          "internalType": "address",
          "name": "account",
          "type": "address"
        },
        {
          "internalType": "uint256",
          "name": "snapshotId",
          "type": "uint256"
        }
      ],
      "name": "balanceOfAt",
      "outputs": [
        {
          "internalType": "uint256",
          "name": "",
          "type": "uint256"
        }
      ],
      "stateMutability": "view",
      "type": "function"
    },
    {
      "inputs": [
        {
          "internalType": "uint256",
          "name": "amount",
          "type": "uint256"
        }
      ],
      "name": "burn",
      "outputs": [],
      "stateMutability": "nonpayable",
      "type": "function"
    },
    {
      "inputs": [
        {
          "internalType": "address",
          "name": "account",
          "type": "address"
        },
        {
          "internalType": "uint256",
          "name": "amount",
          "type": "uint256"
        }
      ],
      "name": "burnFrom",
      "outputs": [],
      "stateMutability": "nonpayable",
      "type": "function"
    },
    {
      "inputs": [],
      "name": "decimals",
      "outputs": [
        {
          "internalType": "uint8",
          "name": "",
          "type": "uint8"
        }
      ],
      "stateMutability": "view",
      "type": "function"
    },
    {
      "inputs": [
        {
          "internalType": "address",
          "name": "spender",
          "type": "address"
        },
        {
          "internalType": "uint256",
          "name": "subtractedValue",
          "type": "uint256"
        }
      ],
      "name": "decreaseAllowance",
      "outputs": [
        {
          "internalType": "bool",
          "name": "",
          "type": "bool"
        }
      ],
      "stateMutability": "nonpayable",
      "type": "function"
    },
    {
      "inputs": [
        {
          "internalType": "bytes32",
          "name": "role",
          "type": "bytes32"
        }
      ],
      "name": "getRoleAdmin",
      "outputs": [
        {
          "internalType": "bytes32",
          "name": "",
          "type": "bytes32"
        }
      ],
      "stateMutability": "view",
      "type": "function"
    },
    {
      "inputs": [
        {
          "internalType": "bytes32",
          "name": "role",
          "type": "bytes32"
        },
        {
          "internalType": "address",
          "name": "account",
          "type": "address"
        }
      ],
      "name": "grantRole",
      "outputs": [],
      "stateMutability": "nonpayable",
      "type": "function"
    },
    {
      "inputs": [
        {
          "internalType": "bytes32",
          "name": "role",
          "type": "bytes32"
        },
        {
          "internalType": "address",
          "name": "account",
          "type": "address"
        }
      ],
      "name": "hasRole",
      "outputs": [
        {
          "internalType": "bool",
          "name": "",
          "type": "bool"
        }
      ],
      "stateMutability": "view",
      "type": "function"
    },
    {
      "inputs": [
        {
          "internalType": "address",
          "name": "spender",
          "type": "address"
        },
        {
          "internalType": "uint256",
          "name": "addedValue",
          "type": "uint256"
        }
      ],
      "name": "increaseAllowance",
      "outputs": [
        {
          "internalType": "bool",
          "name": "",
          "type": "bool"
        }
      ],
      "stateMutability": "nonpayable",
      "type": "function"
    },
    {
      "inputs": [],
      "name": "name",
      "outputs": [
        {
          "internalType": "string",
          "name": "",
          "type": "string"
        }
      ],
      "stateMutability": "view",
      "type": "function"
    },
    {
      "inputs": [
        {
          "internalType": "address",
          "name": "owner",
          "type": "address"
        }
      ],
      "name": "nonces",
      "outputs": [
        {
          "internalType": "uint256",
          "name": "",
          "type": "uint256"
        }
      ],
      "stateMutability": "view",
      "type": "function"
    },
    {
      "inputs": [
        {
          "internalType": "address",
          "name": "owner",
          "type": "address"
        },
        {
          "internalType": "address",
          "name": "spender",
          "type": "address"
        },
        {
          "internalType": "uint256",
          "name": "value",
          "type": "uint256"
        },
        {
          "internalType": "uint256",
          "name": "deadline",
          "type": "uint256"
        },
        {
          "internalType": "uint8",
          "name": "v",
          "type": "uint8"
        },
        {
          "internalType": "bytes32",
          "name": "r",
          "type": "bytes32"
        },
        {
          "internalType": "bytes32",
          "name": "s",
          "type": "bytes32"
        }
      ],
      "name": "permit",
      "outputs": [],
      "stateMutability": "nonpayable",
      "type": "function"
    },
    {
      "inputs": [
        {
          "internalType": "bytes32",
          "name": "role",
          "type": "bytes32"
        },
        {
          "internalType": "address",
          "name": "account",
          "type": "address"
        }
      ],
      "name": "renounceRole",
      "outputs": [],
      "stateMutability": "nonpayable",
      "type": "function"
    },
    {
      "inputs": [
        {
          "internalType": "bytes32",
          "name": "role",
          "type": "bytes32"
        },
        {
          "internalType": "address",
          "name": "account",
          "type": "address"
        }
      ],
      "name": "revokeRole",
      "outputs": [],
      "stateMutability": "nonpayable",
      "type": "function"
    },
    {
      "inputs": [],
      "name": "snapshot",
      "outputs": [],
      "stateMutability": "nonpayable",
      "type": "function"
    },
    {
      "inputs": [
        {
          "internalType": "bytes4",
          "name": "interfaceId",
          "type": "bytes4"
        }
      ],
      "name": "supportsInterface",
      "outputs": [
        {
          "internalType": "bool",
          "name": "",
          "type": "bool"
        }
      ],
      "stateMutability": "view",
      "type": "function"
    },
    {
      "inputs": [],
      "name": "symbol",
      "outputs": [
        {
          "internalType": "string",
          "name": "",
          "type": "string"
        }
      ],
      "stateMutability": "view",
      "type": "function"
    },
    {
      "inputs": [],
      "name": "totalSupply",
      "outputs": [
        {
          "internalType": "uint256",
          "name": "",
          "type": "uint256"
        }
      ],
      "stateMutability": "view",
      "type": "function"
    },
    {
      "inputs": [
        {
          "internalType": "uint256",
          "name": "snapshotId",
          "type": "uint256"
        }
      ],
      "name": "totalSupplyAt",
      "outputs": [
        {
          "internalType": "uint256",
          "name": "",
          "type": "uint256"
        }
      ],
      "stateMutability": "view",
      "type": "function"
    },
    {
      "inputs": [
        {
          "internalType": "address",
          "name": "to",
          "type": "address"
        },
        {
          "internalType": "uint256",
          "name": "amount",
          "type": "uint256"
        }
      ],
      "name": "transfer",
      "outputs": [
        {
          "internalType": "bool",
          "name": "",
          "type": "bool"
        }
      ],
      "stateMutability": "nonpayable",
      "type": "function"
    },
    {
      "inputs": [
        {
          "internalType": "address",
          "name": "from",
          "type": "address"
        },
        {
          "internalType": "address",
          "name": "to",
          "type": "address"
        },
        {
          "internalType": "uint256",
          "name": "amount",
          "type": "uint256"
        }
      ],
      "name": "transferFrom",
      "outputs": [
        {
          "internalType": "bool",
          "name": "",
          "type": "bool"
        }
      ],
      "stateMutability": "nonpayable",
      "type": "function"
    }
  ],
  "bytecode": "0x6101606040527f6e71edae12b1b97f4d1f60370fef10105fa2faae0126114a169c64845d6126c9610140908152503480156200003a57600080fd5b506040518060400160405280600981526020017f54657374546f6b656e0000000000000000000000000000000000000000000000815250806040518060400160405280600181526020017f31000000000000000000000000000000000000000000000000000000000000008152506040518060400160405280600981526020017f54657374546f6b656e00000000000000000000000000000000000000000000008152506040518060400160405280600381526020017f48544b000000000000000000000000000000000000000000000000000000000081525081600390805190602001906200012c929190620008d8565b50806004908051906020019062000145929190620008d8565b50505060008280519060200120905060008280519060200120905060007f8b73c3c69bb8fe3d512ecc4cf759cc79239f7b179b0ffacaa9a75d522b39400f90508260e081815250508161010081815250504660a08181525050620001b18184846200028a60201b60201c565b608081815250503073ffffffffffffffffffffffffffffffffffffffff1660c08173ffffffffffffffffffffffffffffffffffffffff1660601b81525050806101208181525050505050505050620002136000801b33620002c660201b60201c565b620002457f5fdbd35e8da83ee755d5e62a539e5ed7f47126abede0b8b10f9ea43dc6eed07f33620002c660201b60201c565b62000284336200025a620003b860201b60201c565b600a62000268919062000b47565b620f424062000278919062000c84565b620003c160201b60201c565b62000e3f565b60008383834630604051602001620002a7959493929190620009e2565b6040516020818303038152906040528051906020012090509392505050565b620002d882826200053a60201b60201c565b620003b45760016009600084815260200190815260200160002060000160008373ffffffffffffffffffffffffffffffffffffffff1673ffffffffffffffffffffffffffffffffffffffff16815260200190815260200160002060006101000a81548160ff02191690831515021790555062000359620005a560201b60201c565b73ffffffffffffffffffffffffffffffffffffffff168173ffffffffffffffffffffffffffffffffffffffff16837f2f8788117e7eff1d82e926ec794901d17c78024a50270940304540a733656f0d60405160405180910390a45b5050565b60006012905090565b600073ffffffffffffffffffffffffffffffffffffffff168273ffffffffffffffffffffffffffffffffffffffff16141562000434576040517f08c379a00000000000000000000000000000000000000000000000000000000081526004016200042b9062000a3f565b60405180910390fd5b6200044860008383620005ad60201b60201c565b80600260008282546200045c919062000a8f565b92505081905550806000808473ffffffffffffffffffffffffffffffffffffffff1673ffffffffffffffffffffffffffffffffffffffff1681526020019081526020016000206000828254620004b3919062000a8f565b925050819055508173ffffffffffffffffffffffffffffffffffffffff16600073ffffffffffffffffffffffffffffffffffffffff167fddf252ad1be2c89b69c2b068fc378daa952ba7f163c4a11628f55a4df523b3ef836040516200051a919062000a61565b60405180910390a36200053660008383620005ca60201b60201c565b5050565b60006009600084815260200190815260200160002060000160008373ffffffffffffffffffffffffffffffffffffffff1673ffffffffffffffffffffffffffffffffffffffff16815260200190815260200160002060009054906101000a900460ff16905092915050565b600033905090565b620005c5838383620005cf60201b62000e6a1760201c565b505050565b505050565b620005e7838383620006ca60201b62000f241760201c565b600073ffffffffffffffffffffffffffffffffffffffff168373ffffffffffffffffffffffffffffffffffffffff16141562000644576200062e82620006cf60201b60201c565b6200063e6200073260201b60201c565b620006c5565b600073ffffffffffffffffffffffffffffffffffffffff168273ffffffffffffffffffffffffffffffffffffffff161415620006a1576200068b83620006cf60201b60201c565b6200069b6200073260201b60201c565b620006c4565b620006b283620006cf60201b60201c565b620006c382620006cf60201b60201c565b5b5b505050565b505050565b6200072f600560008373ffffffffffffffffffffffffffffffffffffffff1673ffffffffffffffffffffffffffffffffffffffff16815260200190815260200160002062000723836200075660201b60201c565b6200079e60201b60201c565b50565b620007546006620007486200082a60201b60201c565b6200079e60201b60201c565b565b60008060008373ffffffffffffffffffffffffffffffffffffffff1673ffffffffffffffffffffffffffffffffffffffff168152602001908152602001600020549050919050565b6000620007b06200083460201b60201c565b905080620007c7846000016200085260201b60201c565b1015620008255782600001819080600181540180825580915050600190039060005260206000200160009091909190915055826001018290806001815401808255809150506001900390600052602060002001600090919091909150555b505050565b6000600254905090565b60006200084d6008620008ca60201b62000f291760201c565b905090565b600080828054905014156200086b5760009050620008c5565b81600183805490506200087f919062000ce5565b81548110620008b7577f4e487b7100000000000000000000000000000000000000000000000000000000600052603260045260246000fd5b906000526020600020015490505b919050565b600081600001549050919050565b828054620008e69062000d75565b90600052602060002090601f0160209004810192826200090a576000855562000956565b82601f106200092557805160ff191683800117855562000956565b8280016001018555821562000956579182015b828111156200095557825182559160200191906001019062000938565b5b50905062000965919062000969565b5090565b5b80821115620009845760008160009055506001016200096a565b5090565b620009938162000d20565b82525050565b620009a48162000d34565b82525050565b6000620009b9601f8362000a7e565b9150620009c68262000e16565b602082019050919050565b620009dc8162000d5e565b82525050565b600060a082019050620009f9600083018862000999565b62000a08602083018762000999565b62000a17604083018662000999565b62000a266060830185620009d1565b62000a35608083018462000988565b9695505050505050565b6000602082019050818103600083015262000a5a81620009aa565b9050919050565b600060208201905062000a786000830184620009d1565b92915050565b600082825260208201905092915050565b600062000a9c8262000d5e565b915062000aa98362000d5e565b9250827fffffffffffffffffffffffffffffffffffffffffffffffffffffffffffffffff0382111562000ae15762000ae062000dab565b5b828201905092915050565b6000808291508390505b600185111562000b3e5780860481111562000b165762000b1562000dab565b5b600185161562000b265780820291505b808102905062000b368562000e09565b945062000af6565b94509492505050565b600062000b548262000d5e565b915062000b618362000d68565b925062000b907fffffffffffffffffffffffffffffffffffffffffffffffffffffffffffffffff848462000b98565b905092915050565b60008262000baa576001905062000c7d565b8162000bba576000905062000c7d565b816001811462000bd3576002811462000bde5762000c14565b600191505062000c7d565b60ff84111562000bf35762000bf262000dab565b5b8360020a91508482111562000c0d5762000c0c62000dab565b5b5062000c7d565b5060208310610133831016604e8410600b841016171562000c4e5782820a90508381111562000c485762000c4762000dab565b5b62000c7d565b62000c5d848484600162000aec565b9250905081840481111562000c775762000c7662000dab565b5b81810290505b9392505050565b600062000c918262000d5e565b915062000c9e8362000d5e565b9250817fffffffffffffffffffffffffffffffffffffffffffffffffffffffffffffffff048311821515161562000cda5762000cd962000dab565b5b828202905092915050565b600062000cf28262000d5e565b915062000cff8362000d5e565b92508282101562000d155762000d1462000dab565b5b828203905092915050565b600062000d2d8262000d3e565b9050919050565b6000819050919050565b600073ffffffffffffffffffffffffffffffffffffffff82169050919050565b6000819050919050565b600060ff82169050919050565b6000600282049050600182168062000d8e57607f821691505b6020821081141562000da55762000da462000dda565b5b50919050565b7f4e487b7100000000000000000000000000000000000000000000000000000000600052601160045260246000fd5b7f4e487b7100000000000000000000000000000000000000000000000000000000600052602260045260246000fd5b60008160011c9050919050565b7f45524332303a206d696e7420746f20746865207a65726f206164647265737300600082015250565b60805160a05160c05160601c60e051610100516101205161014051613a2c62000e9d6000396000610cbf015260006116ad015260006116ef015260006116ce0152600061160301526000611659015260006116820152613a2c6000f3fe608060405234801561001057600080fd5b50600436106101a95760003560e01c80637028e2cd116100f9578063981b24d011610097578063a9059cbb11610071578063a9059cbb1461050a578063d505accf1461053a578063d547741f14610556578063dd62ed3e14610572576101a9565b8063981b24d01461048c578063a217fddf146104bc578063a457c2d7146104da576101a9565b80637ecebe00116100d35780637ecebe001461040457806391d148541461043457806395d89b41146104645780639711715a14610482576101a9565b80637028e2cd1461039a57806370a08231146103b857806379cc6790146103e8576101a9565b80632f2ff15d1161016657806336568abe1161014057806336568abe14610302578063395093511461031e57806342966c681461034e5780634ee2cd7e1461036a576101a9565b80632f2ff15d146102aa578063313ce567146102c65780633644e515146102e4576101a9565b806301ffc9a7146101ae57806306fdde03146101de578063095ea7b3146101fc57806318160ddd1461022c57806323b872dd1461024a578063248a9ca31461027a575b600080fd5b6101c860048036038101906101c391906128e5565b6105a2565b6040516101d59190612d76565b60405180910390f35b6101e661061c565b6040516101f39190612ea5565b60405180910390f35b61021660048036038101906102119190612844565b6106ae565b6040516102239190612d76565b60405180910390f35b6102346106d1565b6040516102419190613127565b60405180910390f35b610264600480360381019061025f9190612757565b6106db565b6040516102719190612d76565b60405180910390f35b610294600480360381019061028f9190612880565b61070a565b6040516102a19190612d91565b60405180910390f35b6102c460048036038101906102bf91906128a9565b61072a565b005b6102ce610753565b6040516102db9190613142565b60405180910390f35b6102ec61075c565b6040516102f99190612d91565b60405180910390f35b61031c600480360381019061031791906128a9565b61076b565b005b61033860048036038101906103339190612844565b6107ee565b6040516103459190612d76565b60405180910390f35b6103686004803603810190610363919061290e565b610898565b005b610384600480360381019061037f9190612844565b6108ac565b6040516103919190613127565b60405180910390f35b6103a261091c565b6040516103af9190612d91565b60405180910390f35b6103d260048036038101906103cd91906126f2565b610940565b6040516103df9190613127565b60405180910390f35b61040260048036038101906103fd9190612844565b610988565b005b61041e600480360381019061041991906126f2565b6109a8565b60405161042b9190613127565b60405180910390f35b61044e600480360381019061044991906128a9565b6109f8565b60405161045b9190612d76565b60405180910390f35b61046c610a63565b6040516104799190612ea5565b60405180910390f35b61048a610af5565b005b6104a660048036038101906104a1919061290e565b610b33565b6040516104b39190613127565b60405180910390f35b6104c4610b64565b6040516104d19190612d91565b60405180910390f35b6104f460048036038101906104ef9190612844565b610b6b565b6040516105019190612d76565b60405180910390f35b610524600480360381019061051f9190612844565b610c55565b6040516105319190612d76565b60405180910390f35b610554600480360381019061054f91906127a6565b610c78565b005b610570600480360381019061056b91906128a9565b610dba565b005b61058c6004803603810190610587919061271b565b610de3565b6040516105999190613127565b60405180910390f35b60007f7965db0b000000000000000000000000000000000000000000000000000000007bffffffffffffffffffffffffffffffffffffffffffffffffffffffff1916827bffffffffffffffffffffffffffffffffffffffffffffffffffffffff19161480610615575061061482610f37565b5b9050919050565b60606003805461062b90613381565b80601f016020809104026020016040519081016040528092919081815260200182805461065790613381565b80156106a45780601f10610679576101008083540402835291602001916106a4565b820191906000526020600020905b81548152906001019060200180831161068757829003601f168201915b5050505050905090565b6000806106b9610fa1565b90506106c6818585610fa9565b600191505092915050565b6000600254905090565b6000806106e6610fa1565b90506106f3858285611174565b6106fe858585611200565b60019150509392505050565b600060096000838152602001908152602001600020600101549050919050565b6107338261070a565b6107448161073f610fa1565b611481565b61074e838361151e565b505050565b60006012905090565b60006107666115ff565b905090565b610773610fa1565b73ffffffffffffffffffffffffffffffffffffffff168173ffffffffffffffffffffffffffffffffffffffff16146107e0576040517f08c379a00000000000000000000000000000000000000000000000000000000081526004016107d790613107565b60405180910390fd5b6107ea8282611719565b5050565b6000806107f9610fa1565b905061088d818585600160008673ffffffffffffffffffffffffffffffffffffffff1673ffffffffffffffffffffffffffffffffffffffff16815260200190815260200160002060008973ffffffffffffffffffffffffffffffffffffffff1673ffffffffffffffffffffffffffffffffffffffff168152602001908152602001600020546108889190613184565b610fa9565b600191505092915050565b6108a96108a3610fa1565b826117fb565b50565b60008060006108f984600560008873ffffffffffffffffffffffffffffffffffffffff1673ffffffffffffffffffffffffffffffffffffffff1681526020019081526020016000206119d2565b91509150816109105761090b85610940565b610912565b805b9250505092915050565b7f5fdbd35e8da83ee755d5e62a539e5ed7f47126abede0b8b10f9ea43dc6eed07f81565b60008060008373ffffffffffffffffffffffffffffffffffffffff1673ffffffffffffffffffffffffffffffffffffffff168152602001908152602001600020549050919050565b61099a82610994610fa1565b83611174565b6109a482826117fb565b5050565b60006109f1600a60008473ffffffffffffffffffffffffffffffffffffffff1673ffffffffffffffffffffffffffffffffffffffff168152602001908152602001600020610f29565b9050919050565b60006009600084815260200190815260200160002060000160008373ffffffffffffffffffffffffffffffffffffffff1673ffffffffffffffffffffffffffffffffffffffff16815260200190815260200160002060009054906101000a900460ff16905092915050565b606060048054610a7290613381565b80601f0160208091040260200160405190810160405280929190818152602001828054610a9e90613381565b8015610aeb5780601f10610ac057610100808354040283529160200191610aeb565b820191906000526020600020905b815481529060010190602001808311610ace57829003601f168201915b5050505050905090565b7f5fdbd35e8da83ee755d5e62a539e5ed7f47126abede0b8b10f9ea43dc6eed07f610b2781610b22610fa1565b611481565b610b2f611aee565b5050565b6000806000610b438460066119d2565b9150915081610b5957610b546106d1565b610b5b565b805b92505050919050565b6000801b81565b600080610b76610fa1565b90506000600160008373ffffffffffffffffffffffffffffffffffffffff1673ffffffffffffffffffffffffffffffffffffffff16815260200190815260200160002060008673ffffffffffffffffffffffffffffffffffffffff1673ffffffffffffffffffffffffffffffffffffffff16815260200190815260200160002054905083811015610c3c576040517f08c379a0000000000000000000000000000000000000000000000000000000008152600401610c33906130e7565b60405180910390fd5b610c498286868403610fa9565b60019250505092915050565b600080610c60610fa1565b9050610c6d818585611200565b600191505092915050565b83421115610cbb576040517f08c379a0000000000000000000000000000000000000000000000000000000008152600401610cb290612fc7565b60405180910390fd5b60007f0000000000000000000000000000000000000000000000000000000000000000888888610cea8c611b44565b89604051602001610d0096959493929190612dac565b6040516020818303038152906040528051906020012090506000610d2382611ba2565b90506000610d3382878787611bbc565b90508973ffffffffffffffffffffffffffffffffffffffff168173ffffffffffffffffffffffffffffffffffffffff1614610da3576040517f08c379a0000000000000000000000000000000000000000000000000000000008152600401610d9a90613047565b60405180910390fd5b610dae8a8a8a610fa9565b50505050505050505050565b610dc38261070a565b610dd481610dcf610fa1565b611481565b610dde8383611719565b505050565b6000600160008473ffffffffffffffffffffffffffffffffffffffff1673ffffffffffffffffffffffffffffffffffffffff16815260200190815260200160002060008373ffffffffffffffffffffffffffffffffffffffff1673ffffffffffffffffffffffffffffffffffffffff16815260200190815260200160002054905092915050565b610e75838383610f24565b600073ffffffffffffffffffffffffffffffffffffffff168373ffffffffffffffffffffffffffffffffffffffff161415610ec057610eb382611be7565b610ebb611c3a565b610f1f565b600073ffffffffffffffffffffffffffffffffffffffff168273ffffffffffffffffffffffffffffffffffffffff161415610f0b57610efe83611be7565b610f06611c3a565b610f1e565b610f1483611be7565b610f1d82611be7565b5b5b505050565b505050565b600081600001549050919050565b60007f01ffc9a7000000000000000000000000000000000000000000000000000000007bffffffffffffffffffffffffffffffffffffffffffffffffffffffff1916827bffffffffffffffffffffffffffffffffffffffffffffffffffffffff1916149050919050565b600033905090565b600073ffffffffffffffffffffffffffffffffffffffff168373ffffffffffffffffffffffffffffffffffffffff161415611019576040517f08c379a0000000000000000000000000000000000000000000000000000000008152600401611010906130a7565b60405180910390fd5b600073ffffffffffffffffffffffffffffffffffffffff168273ffffffffffffffffffffffffffffffffffffffff161415611089576040517f08c379a000000000000000000000000000000000000000000000000000000000815260040161108090612f87565b60405180910390fd5b80600160008573ffffffffffffffffffffffffffffffffffffffff1673ffffffffffffffffffffffffffffffffffffffff16815260200190815260200160002060008473ffffffffffffffffffffffffffffffffffffffff1673ffffffffffffffffffffffffffffffffffffffff168152602001908152602001600020819055508173ffffffffffffffffffffffffffffffffffffffff168373ffffffffffffffffffffffffffffffffffffffff167f8c5be1e5ebec7d5bd14f71427d1e84f3dd0314c0f7b2291e5b200ac8c7c3b925836040516111679190613127565b60405180910390a3505050565b60006111808484610de3565b90507fffffffffffffffffffffffffffffffffffffffffffffffffffffffffffffffff81146111fa57818110156111ec576040517f08c379a00000000000000000000000000000000000000000000000000000000081526004016111e390612fa7565b60405180910390fd5b6111f98484848403610fa9565b5b50505050565b600073ffffffffffffffffffffffffffffffffffffffff168373ffffffffffffffffffffffffffffffffffffffff161415611270576040517f08c379a000000000000000000000000000000000000000000000000000000000815260040161126790613087565b60405180910390fd5b600073ffffffffffffffffffffffffffffffffffffffff168273ffffffffffffffffffffffffffffffffffffffff1614156112e0576040517f08c379a00000000000000000000000000000000000000000000000000000000081526004016112d790612f27565b60405180910390fd5b6112eb838383611c4e565b60008060008573ffffffffffffffffffffffffffffffffffffffff1673ffffffffffffffffffffffffffffffffffffffff16815260200190815260200160002054905081811015611371576040517f08c379a000000000000000000000000000000000000000000000000000000000815260040161136890612fe7565b60405180910390fd5b8181036000808673ffffffffffffffffffffffffffffffffffffffff1673ffffffffffffffffffffffffffffffffffffffff16815260200190815260200160002081905550816000808573ffffffffffffffffffffffffffffffffffffffff1673ffffffffffffffffffffffffffffffffffffffff16815260200190815260200160002060008282546114049190613184565b925050819055508273ffffffffffffffffffffffffffffffffffffffff168473ffffffffffffffffffffffffffffffffffffffff167fddf252ad1be2c89b69c2b068fc378daa952ba7f163c4a11628f55a4df523b3ef846040516114689190613127565b60405180910390a361147b848484611c5e565b50505050565b61148b82826109f8565b61151a576114b08173ffffffffffffffffffffffffffffffffffffffff166014611c63565b6114be8360001c6020611c63565b6040516020016114cf929190612d3c565b6040516020818303038152906040526040517f08c379a00000000000000000000000000000000000000000000000000000000081526004016115119190612ea5565b60405180910390fd5b5050565b61152882826109f8565b6115fb5760016009600084815260200190815260200160002060000160008373ffffffffffffffffffffffffffffffffffffffff1673ffffffffffffffffffffffffffffffffffffffff16815260200190815260200160002060006101000a81548160ff0219169083151502179055506115a0610fa1565b73ffffffffffffffffffffffffffffffffffffffff168173ffffffffffffffffffffffffffffffffffffffff16837f2f8788117e7eff1d82e926ec794901d17c78024a50270940304540a733656f0d60405160405180910390a45b5050565b60007f000000000000000000000000000000000000000000000000000000000000000073ffffffffffffffffffffffffffffffffffffffff163073ffffffffffffffffffffffffffffffffffffffff1614801561167b57507f000000000000000000000000000000000000000000000000000000000000000046145b156116a8577f00000000000000000000000000000000000000000000000000000000000000009050611716565b6117137f00000000000000000000000000000000000000000000000000000000000000007f00000000000000000000000000000000000000000000000000000000000000007f0000000000000000000000000000000000000000000000000000000000000000611f5d565b90505b90565b61172382826109f8565b156117f75760006009600084815260200190815260200160002060000160008373ffffffffffffffffffffffffffffffffffffffff1673ffffffffffffffffffffffffffffffffffffffff16815260200190815260200160002060006101000a81548160ff02191690831515021790555061179c610fa1565b73ffffffffffffffffffffffffffffffffffffffff168173ffffffffffffffffffffffffffffffffffffffff16837ff6391f5c32d9c69d2a47ea670b442974b53935d1edc7fd64eb21e047a839171b60405160405180910390a45b5050565b600073ffffffffffffffffffffffffffffffffffffffff168273ffffffffffffffffffffffffffffffffffffffff16141561186b576040517f08c379a000000000000000000000000000000000000000000000000000000000815260040161186290613067565b60405180910390fd5b61187782600083611c4e565b60008060008473ffffffffffffffffffffffffffffffffffffffff1673ffffffffffffffffffffffffffffffffffffffff168152602001908152602001600020549050818110156118fd576040517f08c379a00000000000000000000000000000000000000000000000000000000081526004016118f490612f47565b60405180910390fd5b8181036000808573ffffffffffffffffffffffffffffffffffffffff1673ffffffffffffffffffffffffffffffffffffffff1681526020019081526020016000208190555081600260008282546119549190613265565b92505081905550600073ffffffffffffffffffffffffffffffffffffffff168373ffffffffffffffffffffffffffffffffffffffff167fddf252ad1be2c89b69c2b068fc378daa952ba7f163c4a11628f55a4df523b3ef846040516119b99190613127565b60405180910390a36119cd83600084611c5e565b505050565b60008060008411611a18576040517f08c379a0000000000000000000000000000000000000000000000000000000008152600401611a0f906130c7565b60405180910390fd5b611a20611f97565b841115611a62576040517f08c379a0000000000000000000000000000000000000000000000000000000008152600401611a5990612ee7565b60405180910390fd5b6000611a7a8585600001611fa890919063ffffffff16565b90508360000180549050811415611a98576000809250925050611ae7565b6001846001018281548110611ad6577f4e487b7100000000000000000000000000000000000000000000000000000000600052603260045260246000fd5b906000526020600020015492509250505b9250929050565b6000611afa60086120ce565b6000611b04611f97565b90507f8030e83b04d87bef53480e26263266d6ca66863aa8506aca6f2559d18aa1cb6781604051611b359190613127565b60405180910390a18091505090565b600080600a60008473ffffffffffffffffffffffffffffffffffffffff1673ffffffffffffffffffffffffffffffffffffffff1681526020019081526020016000209050611b9181610f29565b9150611b9c816120ce565b50919050565b6000611bb5611baf6115ff565b836120e4565b9050919050565b6000806000611bcd87878787612117565b91509150611bda81612224565b8192505050949350505050565b611c37600560008373ffffffffffffffffffffffffffffffffffffffff1673ffffffffffffffffffffffffffffffffffffffff168152602001908152602001600020611c3283610940565b612575565b50565b611c4c6006611c476106d1565b612575565b565b611c59838383610e6a565b505050565b505050565b606060006002836002611c76919061320b565b611c809190613184565b67ffffffffffffffff811115611cbf577f4e487b7100000000000000000000000000000000000000000000000000000000600052604160045260246000fd5b6040519080825280601f01601f191660200182016040528015611cf15781602001600182028036833780820191505090505b5090507f300000000000000000000000000000000000000000000000000000000000000081600081518110611d4f577f4e487b7100000000000000000000000000000000000000000000000000000000600052603260045260246000fd5b60200101907effffffffffffffffffffffffffffffffffffffffffffffffffffffffffffff1916908160001a9053507f780000000000000000000000000000000000000000000000000000000000000081600181518110611dd9577f4e487b7100000000000000000000000000000000000000000000000000000000600052603260045260246000fd5b60200101907effffffffffffffffffffffffffffffffffffffffffffffffffffffffffffff1916908160001a90535060006001846002611e19919061320b565b611e239190613184565b90505b6001811115611f0f577f3031323334353637383961626364656600000000000000000000000000000000600f861660108110611e8b577f4e487b7100000000000000000000000000000000000000000000000000000000600052603260045260246000fd5b1a60f81b828281518110611ec8577f4e487b7100000000000000000000000000000000000000000000000000000000600052603260045260246000fd5b60200101907effffffffffffffffffffffffffffffffffffffffffffffffffffffffffffff1916908160001a905350600485901c945080611f0890613357565b9050611e26565b5060008414611f53576040517f08c379a0000000000000000000000000000000000000000000000000000000008152600401611f4a90612f07565b60405180910390fd5b8091505092915050565b60008383834630604051602001611f78959493929190612e0d565b6040516020818303038152906040528051906020012090509392505050565b6000611fa36008610f29565b905090565b60008083805490501415611fbf57600090506120c8565b600080848054905090505b80821015612049576000611fde83836125f0565b90508486828154811061201a577f4e487b7100000000000000000000000000000000000000000000000000000000600052603260045260246000fd5b9060005260206000200154111561203357809150612043565b6001816120409190613184565b92505b50611fca565b6000821180156120a7575083856001846120639190613265565b8154811061209a577f4e487b7100000000000000000000000000000000000000000000000000000000600052603260045260246000fd5b9060005260206000200154145b156120c2576001826120b99190613265565b925050506120c8565b81925050505b92915050565b6001816000016000828254019250508190555050565b600082826040516020016120f9929190612d05565b60405160208183030381529060405280519060200120905092915050565b6000807f7fffffffffffffffffffffffffffffff5d576e7357a4501ddfe92f46681b20a08360001c111561215257600060039150915061221b565b601b8560ff161415801561216a5750601c8560ff1614155b1561217c57600060049150915061221b565b6000600187878787604051600081526020016040526040516121a19493929190612e60565b6020604051602081039080840390855afa1580156121c3573d6000803e3d6000fd5b505050602060405103519050600073ffffffffffffffffffffffffffffffffffffffff168173ffffffffffffffffffffffffffffffffffffffff1614156122125760006001925092505061221b565b80600092509250505b94509492505050565b6000600481111561225e577f4e487b7100000000000000000000000000000000000000000000000000000000600052602160045260246000fd5b816004811115612297577f4e487b7100000000000000000000000000000000000000000000000000000000600052602160045260246000fd5b14156122a257612572565b600160048111156122dc577f4e487b7100000000000000000000000000000000000000000000000000000000600052602160045260246000fd5b816004811115612315577f4e487b7100000000000000000000000000000000000000000000000000000000600052602160045260246000fd5b1415612356576040517f08c379a000000000000000000000000000000000000000000000000000000000815260040161234d90612ec7565b60405180910390fd5b60026004811115612390577f4e487b7100000000000000000000000000000000000000000000000000000000600052602160045260246000fd5b8160048111156123c9577f4e487b7100000000000000000000000000000000000000000000000000000000600052602160045260246000fd5b141561240a576040517f08c379a000000000000000000000000000000000000000000000000000000000815260040161240190612f67565b60405180910390fd5b60036004811115612444577f4e487b7100000000000000000000000000000000000000000000000000000000600052602160045260246000fd5b81600481111561247d577f4e487b7100000000000000000000000000000000000000000000000000000000600052602160045260246000fd5b14156124be576040517f08c379a00000000000000000000000000000000000000000000000000000000081526004016124b590613007565b60405180910390fd5b6004808111156124f7577f4e487b7100000000000000000000000000000000000000000000000000000000600052602160045260246000fd5b816004811115612530577f4e487b7100000000000000000000000000000000000000000000000000000000600052602160045260246000fd5b1415612571576040517f08c379a000000000000000000000000000000000000000000000000000000000815260040161256890613027565b60405180910390fd5b5b50565b600061257f611f97565b90508061258e84600001612616565b10156125eb5782600001819080600181540180825580915050600190039060005260206000200160009091909190915055826001018290806001815401808255809150506001900390600052602060002001600090919091909150555b505050565b6000600282841861260191906131da565b82841661260e9190613184565b905092915050565b6000808280549050141561262d5760009050612684565b816001838054905061263f9190613265565b81548110612676577f4e487b7100000000000000000000000000000000000000000000000000000000600052603260045260246000fd5b906000526020600020015490505b919050565b60008135905061269881613983565b92915050565b6000813590506126ad8161399a565b92915050565b6000813590506126c2816139b1565b92915050565b6000813590506126d7816139c8565b92915050565b6000813590506126ec816139df565b92915050565b60006020828403121561270457600080fd5b600061271284828501612689565b91505092915050565b6000806040838503121561272e57600080fd5b600061273c85828601612689565b925050602061274d85828601612689565b9150509250929050565b60008060006060848603121561276c57600080fd5b600061277a86828701612689565b935050602061278b86828701612689565b925050604061279c868287016126c8565b9150509250925092565b600080600080600080600060e0888a0312156127c157600080fd5b60006127cf8a828b01612689565b97505060206127e08a828b01612689565b96505060406127f18a828b016126c8565b95505060606128028a828b016126c8565b94505060806128138a828b016126dd565b93505060a06128248a828b0161269e565b92505060c06128358a828b0161269e565b91505092959891949750929550565b6000806040838503121561285757600080fd5b600061286585828601612689565b9250506020612876858286016126c8565b9150509250929050565b60006020828403121561289257600080fd5b60006128a08482850161269e565b91505092915050565b600080604083850312156128bc57600080fd5b60006128ca8582860161269e565b92505060206128db85828601612689565b9150509250929050565b6000602082840312156128f757600080fd5b6000612905848285016126b3565b91505092915050565b60006020828403121561292057600080fd5b600061292e848285016126c8565b91505092915050565b61294081613299565b82525050565b61294f816132ab565b82525050565b61295e816132b7565b82525050565b612975612970826132b7565b6133b3565b82525050565b60006129868261315d565b6129908185613168565b93506129a0818560208601613324565b6129a98161344a565b840191505092915050565b60006129bf8261315d565b6129c98185613179565b93506129d9818560208601613324565b80840191505092915050565b60006129f2601883613168565b91506129fd8261345b565b602082019050919050565b6000612a15601d83613168565b9150612a2082613484565b602082019050919050565b6000612a38602083613168565b9150612a43826134ad565b602082019050919050565b6000612a5b602383613168565b9150612a66826134d6565b604082019050919050565b6000612a7e602283613168565b9150612a8982613525565b604082019050919050565b6000612aa1601f83613168565b9150612aac82613574565b602082019050919050565b6000612ac4602283613168565b9150612acf8261359d565b604082019050919050565b6000612ae7600283613179565b9150612af2826135ec565b600282019050919050565b6000612b0a601d83613168565b9150612b1582613615565b602082019050919050565b6000612b2d601d83613168565b9150612b388261363e565b602082019050919050565b6000612b50602683613168565b9150612b5b82613667565b604082019050919050565b6000612b73602283613168565b9150612b7e826136b6565b604082019050919050565b6000612b96602283613168565b9150612ba182613705565b604082019050919050565b6000612bb9601e83613168565b9150612bc482613754565b602082019050919050565b6000612bdc602183613168565b9150612be78261377d565b604082019050919050565b6000612bff602583613168565b9150612c0a826137cc565b604082019050919050565b6000612c22602483613168565b9150612c2d8261381b565b604082019050919050565b6000612c45601683613168565b9150612c508261386a565b602082019050919050565b6000612c68601783613179565b9150612c7382613893565b601782019050919050565b6000612c8b602583613168565b9150612c96826138bc565b604082019050919050565b6000612cae601183613179565b9150612cb98261390b565b601182019050919050565b6000612cd1602f83613168565b9150612cdc82613934565b604082019050919050565b612cf08161330d565b82525050565b612cff81613317565b82525050565b6000612d1082612ada565b9150612d1c8285612964565b602082019150612d2c8284612964565b6020820191508190509392505050565b6000612d4782612c5b565b9150612d5382856129b4565b9150612d5e82612ca1565b9150612d6a82846129b4565b91508190509392505050565b6000602082019050612d8b6000830184612946565b92915050565b6000602082019050612da66000830184612955565b92915050565b600060c082019050612dc16000830189612955565b612dce6020830188612937565b612ddb6040830187612937565b612de86060830186612ce7565b612df56080830185612ce7565b612e0260a0830184612ce7565b979650505050505050565b600060a082019050612e226000830188612955565b612e2f6020830187612955565b612e3c6040830186612955565b612e496060830185612ce7565b612e566080830184612937565b9695505050505050565b6000608082019050612e756000830187612955565b612e826020830186612cf6565b612e8f6040830185612955565b612e9c6060830184612955565b95945050505050565b60006020820190508181036000830152612ebf818461297b565b905092915050565b60006020820190508181036000830152612ee0816129e5565b9050919050565b60006020820190508181036000830152612f0081612a08565b9050919050565b60006020820190508181036000830152612f2081612a2b565b9050919050565b60006020820190508181036000830152612f4081612a4e565b9050919050565b60006020820190508181036000830152612f6081612a71565b9050919050565b60006020820190508181036000830152612f8081612a94565b9050919050565b60006020820190508181036000830152612fa081612ab7565b9050919050565b60006020820190508181036000830152612fc081612afd565b9050919050565b60006020820190508181036000830152612fe081612b20565b9050919050565b6000602082019050818103600083015261300081612b43565b9050919050565b6000602082019050818103600083015261302081612b66565b9050919050565b6000602082019050818103600083015261304081612b89565b9050919050565b6000602082019050818103600083015261306081612bac565b9050919050565b6000602082019050818103600083015261308081612bcf565b9050919050565b600060208201905081810360008301526130a081612bf2565b9050919050565b600060208201905081810360008301526130c081612c15565b9050919050565b600060208201905081810360008301526130e081612c38565b9050919050565b6000602082019050818103600083015261310081612c7e565b9050919050565b6000602082019050818103600083015261312081612cc4565b9050919050565b600060208201905061313c6000830184612ce7565b92915050565b60006020820190506131576000830184612cf6565b92915050565b600081519050919050565b600082825260208201905092915050565b600081905092915050565b600061318f8261330d565b915061319a8361330d565b9250827fffffffffffffffffffffffffffffffffffffffffffffffffffffffffffffffff038211156131cf576131ce6133bd565b5b828201905092915050565b60006131e58261330d565b91506131f08361330d565b925082613200576131ff6133ec565b5b828204905092915050565b60006132168261330d565b91506132218361330d565b9250817fffffffffffffffffffffffffffffffffffffffffffffffffffffffffffffffff048311821515161561325a576132596133bd565b5b828202905092915050565b60006132708261330d565b915061327b8361330d565b92508282101561328e5761328d6133bd565b5b828203905092915050565b60006132a4826132ed565b9050919050565b60008115159050919050565b6000819050919050565b60007fffffffff0000000000000000000000000000000000000000000000000000000082169050919050565b600073ffffffffffffffffffffffffffffffffffffffff82169050919050565b6000819050919050565b600060ff82169050919050565b60005b83811015613342578082015181840152602081019050613327565b83811115613351576000848401525b50505050565b60006133628261330d565b91506000821415613376576133756133bd565b5b600182039050919050565b6000600282049050600182168061339957607f821691505b602082108114156133ad576133ac61341b565b5b50919050565b6000819050919050565b7f4e487b7100000000000000000000000000000000000000000000000000000000600052601160045260246000fd5b7f4e487b7100000000000000000000000000000000000000000000000000000000600052601260045260246000fd5b7f4e487b7100000000000000000000000000000000000000000000000000000000600052602260045260246000fd5b6000601f19601f8301169050919050565b7f45434453413a20696e76616c6964207369676e61747572650000000000000000600082015250565b7f4552433230536e617073686f743a206e6f6e6578697374656e74206964000000600082015250565b7f537472696e67733a20686578206c656e67746820696e73756666696369656e74600082015250565b7f45524332303a207472616e7366657220746f20746865207a65726f206164647260008201527f6573730000000000000000000000000000000000000000000000000000000000602082015250565b7f45524332303a206275726e20616d6f756e7420657863656564732062616c616e60008201527f6365000000000000000000000000000000000000000000000000000000000000602082015250565b7f45434453413a20696e76616c6964207369676e6174757265206c656e67746800600082015250565b7f45524332303a20617070726f766520746f20746865207a65726f20616464726560008201527f7373000000000000000000000000000000000000000000000000000000000000602082015250565b7f1901000000000000000000000000000000000000000000000000000000000000600082015250565b7f45524332303a20696e73756666696369656e7420616c6c6f77616e6365000000600082015250565b7f45524332305065726d69743a206578706972656420646561646c696e65000000600082015250565b7f45524332303a207472616e7366657220616d6f756e742065786365656473206260008201527f616c616e63650000000000000000000000000000000000000000000000000000602082015250565b7f45434453413a20696e76616c6964207369676e6174757265202773272076616c60008201527f7565000000000000000000000000000000000000000000000000000000000000602082015250565b7f45434453413a20696e76616c6964207369676e6174757265202776272076616c60008201527f7565000000000000000000000000000000000000000000000000000000000000602082015250565b7f45524332305065726d69743a20696e76616c6964207369676e61747572650000600082015250565b7f45524332303a206275726e2066726f6d20746865207a65726f2061646472657360008201527f7300000000000000000000000000000000000000000000000000000000000000602082015250565b7f45524332303a207472616e736665722066726f6d20746865207a65726f20616460008201527f6472657373000000000000000000000000000000000000000000000000000000602082015250565b7f45524332303a20617070726f76652066726f6d20746865207a65726f2061646460008201527f7265737300000000000000000000000000000000000000000000000000000000602082015250565b7f4552433230536e617073686f743a206964206973203000000000000000000000600082015250565b7f416363657373436f6e74726f6c3a206163636f756e7420000000000000000000600082015250565b7f45524332303a2064656372656173656420616c6c6f77616e63652062656c6f7760008201527f207a65726f000000000000000000000000000000000000000000000000000000602082015250565b7f206973206d697373696e6720726f6c6520000000000000000000000000000000600082015250565b7f416363657373436f6e74726f6c3a2063616e206f6e6c792072656e6f756e636560008201527f20726f6c657320666f722073656c660000000000000000000000000000000000602082015250565b61398c81613299565b811461399757600080fd5b50565b6139a3816132b7565b81146139ae57600080fd5b50565b6139ba816132c1565b81146139c557600080fd5b50565b6139d18161330d565b81146139dc57600080fd5b50565b6139e881613317565b81146139f357600080fd5b5056fea2646970667358221220f14e3dd145b89ececc14c28ab99fd413126bfd7ecf3ae477ae8b808d5906ea0264736f6c63430008040033",
  "linkReferences": {},
  "deployedLinkReferences": {}
}